:04000000ACEF08F069
:08000800046ED8CF05F0E0CF33
:1000100006F00001E9CF0CF0EACF07F0E1CF08F0DD
:10002000E2CF09F0D9CF0AF0DACF0BF0F3CF12F01C
:10003000F4CF13F0FACF14F000C00EF001C00FF0AF
:1000400002C010F003C011F09DA22AEF00F09EB292
:100050004BEF00F00EC000F00FC001F010C002F036
:1000600011C003F00CC0E9FF07C0EAFF078E08C00B
:10007000E1FF09C0E2FF0AC0D9FF0BC0DAFF12C0DE
:10008000F3FF13C0F4FF14C0FAFF045006C0E0FFF2
:1000900005C0D8FF10001C2AD8B41D2A9E922AEF52
:1000A00000F00D0A0D0A4343532043414E205452A1
:1000B000414E5346455220424D453238302044414E
:1000C00054410D0A00000D0A52756E6E696E672E5E
:1000D0002E2E00000D0A54656D7065726174757284
:1000E00065205348543731203D20256633000D0AE2
:1000F00048756D6964697479205348543731203DDF
:100100002025663300000D0A6C6F773D25750000D1
:100110000D0A686967683D2575000D0A474F543A16
:1001200020425546463D25552049443D254C552005
:100130004C454E3D2555204F56463D255520000047
:1001400046494C543D2555205254523D2555204595
:1001500058543D255520494E563D255500000D0A61
:100160002020202044415441203D20000D0A4641DA
:10017000494C206F6E20474554440D0A00000D0A7B
:100180005055542025553A2049443D254C55204C86
:10019000454E3D25552000005052493D25552045EE
:1001A00058543D2555205254523D25550D0A2020C6
:1001B0002044415441203D2000000D0A5055542058
:1001C00025553A2049443D254C55204C454E3D256A
:1001D000552000000D0A4641494C206F6E205055B5
:1001E00054440D0A00000900F5520DE0F6CF4EF020
:1001F000F7CF4FF0F5509EA8FED7AD6E4EC0F6FF7C
:100200004FC0F7FFF0D712004E38700B006ED89039
:1002100000361F0E6F1400106F6E6ECF00F0003AA4
:100220000030070B4E5CF9E11200C00E7014040997
:10023000706E3F0E7014706EF80E71140209716EBC
:10024000C70E71142809716E719C718EF80E7214AC
:100250000509726E729CC9EF01F05FC066F05EC066
:1002600065F0645352E065C0E9FF66C0EAFF60C014
:10027000EFFF6551D8B46607650765C0E9FF66C042
:10028000EAFF61C0EFFF6551D8B46607650765C036
:10029000E9FF66C0EAFF6251030BEF6E65C0E9FF3C
:1002A00066C0EAFF62C000F0003600360036F80E85
:1002B00000160050E00BEF10EF6E65C0E9FF66C05E
:1002C000EAFFEF500809EF6E6551D8B4660765077D
:1002D00065C0E9FF66C0EAFF62C000F0003A003284
:1002E000070E00160050070BEF6E65C0E9FF66C0F1
:1002F000EAFF63C000F0003600360036F80E001644
:100300000050F80BEF10EF6E3FD065C0E9FF66C0FC
:10031000EAFFEF6A6551D8B46607650765C0E9FF73
:1003200066C0EAFFEF6A6551D8B46607650765C025
:10033000E9FF66C0EAFF60C000F0003A0036E00E58
:1003400000160050E00BEF6E6551D8B466076507E4
:1003500065C0E9FF66C0EAFF60C000F0003200320D
:1003600000321F0E001600501F0BEF6E65C0E9FF34
:1003700066C0EAFF61C000F0003A0036E00E0016E9
:100380000050E00BEF10EF6E1200040E4E6E3CDFDB
:100390004CD7606A9F0E6014606E608460CF50FF1F
:1003A000739A7398739E739C0F0E5F6E1B0E5E6E36
:1003B000636B626B616B606B010E646F4EDF0F0EDF
:1003C0005F6E030E5E6E636B626B616B606B010E42
:1003D000646F43DF0F0E5F6E070E5E6E636B626BC2
:1003E000616B606B010E646F38DF0F0E5F6E1F0E66
:1003F0005E6E636B626B616B606B010E646F2DDF11
:100400000F0E5F6E0B0E5E6E636B626B616B606BEB
:10041000010E646F22DF0F0E5F6E5E6E636B626BA8
:10042000616B606B010E646F18DF0F0E5F6E130E51
:100430005E6E636B626B616B606B010E646F0DDFF0
:100440000F0E5F6E170E5E6E636B626B616B606B9F
:10045000010E646F02DF9350FB0B0809936E4E6A26
:10046000D3DE10EF09F0EA6A4F0EE96EEF500DE0AF
:10047000060E016E006A002EFED7012EFBD77B0E02
:10048000006E002EFED7EF2EF3D71200938E8A9CBB
:10049000939C00D000D000008A8C939C00D000D0A8
:1004A00000008A9E939E00D000D000008A9C939CFE
:1004B000020E006E002EFED700D000008A8C939CA6
:1004C00000D000D00000938E00D000D000008A9CA5
:1004D000939C1200938E8A9C939C020E006E002EB9
:1004E000FED700D000004E6A4E50080812E38A8CF6
:1004F000939C020E006E002EFED700D000008A9C56
:10050000939C020E006E002EFED700D000004E2AF3
:10051000EBD7BCDF8DEF02F0DDD7140E4F6EA3DFFB
:1005200016EF09F0800E636F060E006E002EFED7E8
:100530000000626B6251070815E38A9C939C61512D
:10054000631502E0938E02D08A9E939E00D000D065
:1005500000008A8C939C00D000D00000D8906333B8
:10056000622BE8D78A9C939C00D000D00000938E29
:10057000649181BE64818A8C939C00D000D000007D
:100580008A9C939C000E64B1010E016E1200938E42
:100590008A9C939C00D000D00000626B616B62511A
:1005A000750810E303E161512F080CE3938E81AECF
:1005B00009D0100E006E002EFED70000612BD8B4BB
:1005C000622BEDD71200636B626B616B61510708A0
:1005D00013E3D890623763378A8C939C00D000D0A5
:1005E0000000938E81AE01D062818A9C939C00D0E2
:1005F00000D00000612BEAD78A9E939E00D000D0E5
:1006000000008A8C939C020E006E002EFED700D054
:1006100000008A9C939C00D000D00000938E616BF8
:100620006151070813E3D890623763378A8C939C33
:1006300000D000D00000938E81AE01D062818A9CF0
:10064000939C00D000D00000612BEAD7938E00D09D
:1006500000D000008A8C939C020E006E002EFED704
:1006600000D000008A9C939C62C001F063C002F03D
:1006700012000CDF030E616F55DF5E9001B05E80EB
:100680005EB00AD084DF9FDF02C060F001C05FF07F
:100690005FC001F060C002F012008E0E006E73C0E9
:1006A00001F072C002F0036A015209E102C001F0D8
:1006B000026A080E005E015202E1006A08D0D8907A
:1006C00001BE04D0023601360006F9D7019E1200A1
:1006D000DDDE050E616F26DF5E9001B05E805EB0EC
:1006E0000AD055DF70DF02C060F001C05FF05FC06C
:1006F00001F060C002F012007A51D8B471D0006EDF
:100700007E51D8B46DD0002604E3810E002668E245
:1007100004D07F0E005E64E363E07BC082F07F5113
:10072000821B7B8F7F8F7D518103F4CF84F07C51BE
:100730008003F4CF03F0F3CF83F08103F3508427D9
:10074000F4508323000E03227D518003F35084274D
:10075000F4508323000E026A032202227B5181039C
:10076000F3508327F4500322000E02227B518003B2
:10077000F3500326F4500222000E016A01227D513B
:100780007F03F3508327F4500322000E022201223C
:100790007C517F03F3500326F4500222000E012205
:1007A0007B517F03F3500226F4500122002A01BE40
:1007B00005D083370336023601360006000E83AFBC
:1007C0000AD0032A02220122015005E1025003E16E
:1007D000035001E1002A82BF018E82AF019E04D046
:1007E000006A016A026A036A1200800ED8B27B1B9B
:1007F000806B816B77C07FF07B517F1B7651D8B4C3
:10080000DCD07E6F006E7A51D8B4E0D07E5FD8B471
:1008100081D03DE37BC084F0848F7CC083F07DC0B9
:1008200082F0816BD89084338333823381337E2F7F
:10083000F8D77FAF03D08081DDD080917E91808911
:10084000EA6A790EE96EE9D080997FBF0AD07EA16D
:1008500013D08433833382338133002AD8B4C5D094
:100860000BD084BF0CD0D890813782378337843740
:100870000006D8B4BAD0F5D7808D6BD0809D77C0F4
:100880007FF077AF02D0848FA9D0849FA7D07AC0A1
:100890007EF07AC000F076517E5F77C084F0848F5E
:1008A00078C083F079C082F0816BD8908433833331
:1008B000823381337E2FF8D77FAF03D080839AD0E5
:1008C00080937E91808BEA6A7D0EE96EA6D0809B34
:1008D0007FBF0AD07EA113D0843383338233813328
:1008E000002AD8B482D00BD084BF0CD0D8908137E6
:1008F0008237833784370006D8B477D0F5D7808F16
:1009000028D0809F7BC07FF07BAF02D0848F66D0E1
:10091000849F64D07BC084F0848F7CC083F07DC0D2
:1009200082F07FAF04D0849F808564D08095816BF6
:100930007E91EA6A790EE96E70D07FBF1CD077C0D5
:100940007FF07EA106D08433833382338133002A43
:100950004CE081AF0BD0822B09E1832B07E1842B84
:1009600005E1843383338233002A3FE080BD86D79C
:1009700080BFC7D71CD0800E841B84AF04D03AD070
:100980007BC07FF00AD077C07FF0845306E18353A9
:1009900004E1825302E1006A21D084BF08D0D890DC
:1009A0008137823783378437002EF7D71ED07FAF49
:1009B00002D0848F13D0849F11D07AC000F07BC006
:1009C00084F07CC083F07DC082F008D076C000F057
:1009D00077C084F078C083F079C082F084C001F0E1
:1009E00083C002F082C003F034D0006A016A026A58
:1009F000036A2FD0816B821F831F841F811F812B6D
:100A000005E1822B03E1832B01E1842B80B115D713
:100A100080B356D780B58AD7B3D7EF50822705E386
:100A2000832B03E1842BD8B47E81ED52EF508327D2
:100A300003E3842BD8B47E81ED52EF50EFBE01D09A
:100A4000800A8427D8B07E8180B9FED680BB3FD78C
:100A500074D712000900F6CF53F0F7CF54F0F550D9
:100A60009EA8FED7AD6E53C0F6FF54C0F7FF522EBE
:100A7000F1D712005B50B6085B6E036A5CC05FF092
:100A80005C8ED8905C325D325E32033202320132CB
:100A900000325B2EF6D75FAE0BD0001E011E021E89
:100AA000031E002AD8B4012AD8B4022AD8B4032AD3
:100AB000C8EF05F0D8B203D0EA6A640EE96E006AA6
:100AC000016A026A036A646B656B666B676B6351EC
:100AD0006211611160112CE0200E686FD8905C36B5
:100AE0005D365E365F366437653766376737635124
:100AF000675D08E16251665D05E16151655D02E196
:100B00006051645D0FE36051645F6151D8A0613D45
:100B1000655F6251D8A0623D665F6351D8A0633DB6
:100B2000675FD8800036013602360336682FD6D785
:100B300064C0EFFF65C0ECFF66C0ECFF67C0ECFF70
:100B40001200E950536E5250556E19E051C07DF0BD
:100B500050C07CF04FC07BF04EC07AF0816B806B50
:100B6000200E7F6F820E7E6FC7DD03C051F002C082
:100B700050F001C04FF000C04EF0552EE7D751C0E5
:100B80005EF050C05DF04FC05CF04EC05BF072D7BD
:100B900003C051F002C050F001C04FF000C04EF051
:100BA00051AE0DD05306538A4E1E4F1E501E511E7D
:100BB0004E2AD8B44F2AD8B4502AD8B4512A3B0E62
:100BC0005A6E9A0E596ECA0E586E576A0A0E556EB4
:100BD0005250D8B4532AD882EA6A4E0EE96E51C0F8
:100BE0005FF050C05EF04FC05DF04EC05CF05AC088
:100BF00063F059C062F058C061F057C060F05ADF2E
:100C0000015000520FE15228555C0CE053500CE0AB
:100C10000F0B555C01E03BE253BE39D053BC04D00E
:100C2000200E30D0200E531653AA0DD0539A525096
:100C3000D8A453060050536E2D0E9EA8FED7AD6E5D
:100C40005350006E536A5250555C0BE10050536E86
:100C50002E0E9EA8FED7AD6E5350006E200E53167A
:100C6000000E300E53AA0ED0539A5250D8A45306F9
:100C70000050536E2D0E9EA8FED7AD6E5350006EE1
:100C8000536A300E002600509EA8FED7AD6ED89253
:100C90005AC05FF059C05EF058C05DF057C05CF0BC
:100CA000636B626B616B0A0E606F04DF03C05AF006
:100CB00002C059F001C058F000C057F0552E8BD734
:100CC00012005550016A545C03E254C000F00CD08D
:100CD000006A080E566E543600365550005CD8B087
:100CE000006E0136562EF7D71200015052C054F054
:100CF000640E556EE6DF00C052F00150300E07E181
:100D000053A20DD053B60BD053B8200E03D0539638
:100D100053985380012601509EA8FED7AD6E52C055
:100D200054F00A0E556ECDDF00C052F00150300E67
:100D300006E153B609D053A007D053B8200E0126C0
:100D400001509EA8FED7AD6E300E522652509EA87E
:100D5000FED7AD6E12004FC056F05350561A56AE25
:100D600005D0D894D8904FBED8802FD04FC056F021
:100D700052C057F04E50575E06E056AE26D0D850BF
:100D8000010AD86E22D053C057F04F50575E06E08C
:100D900056AE1BD0D850010AD86E17D054C057F0A9
:100DA0005050575E06E056AE10D0D850010AD86EAB
:100DB0000CD055C057F05150575E06E056AE05D0E6
:100DC000D850010AD86E01D0D8901200606B5F6ACB
:100DD0005E6A5D6A5BC062F05AC061F05C52D8B472
:100DE00089D061C0E9FF62C0EAFF606B5F6A5E6A3A
:100DF000EFCF5DF06151D8B46207610761C0E9FFD0
:100E000062C0EAFFEF50656B646B636F006A00506D
:100E10005D1263515E1264515F126551601361513E
:100E2000D8B46207610761C0E9FF62C0EAFFEF5012
:100E3000666B656B646B636F030E6317646B656B46
:100E4000666B006A016A00505D1201505E126351C8
:100E50005F126451601361C0E9FF62C0EAFFEF50A6
:100E6000666B656B646B636FE00E6317646B656B39
:100E7000666B006A6335016E6435026E6535036E1C
:100E800001360236033601360236033601360236A3
:100E90000336013602360336E00E011600505D12AD
:100EA00001505E1202505F12035060136151D8B4BA
:100EB0006207610761C0E9FF62C0EAFFEF50646B3F
:100EC000636F006A016A6335026E6435036E023631
:100ED0000336023603360236033602360336E00E98
:100EE000021600505D1201505E1202505F12035054
:100EF000601353D0020E615F000E625B61C0E9FFB8
:100F000062C0EAFFEF50666B656B646B636FE00E67
:100F10006317646B656B666B6631606F65315F6E1E
:100F200064315E6E63315D6E60335F325E325D32BE
:100F300060335F325E325D3260335F325E325D322B
:100F400060335F325E325D32070E60176151D8B494
:100F50006207610761C0E9FF62C0EAFFEF50666B9C
:100F6000656B646B636F6335006E6435016E653568
:100F7000026E6635036E00360136023603360036E1
:100F8000013602360336F80E001600505D1201508D
:100F90005E1202505F12035060135DC000F05EC02D
:100FA00001F05FC002F060C003F009EF0CF0E950FF
:100FB000546E3B0E5B6E9A0E5A6ECA0E596E586A8C
:100FC0000A0E566ED882EA6A500EE96E53C05FF080
:100FD00052C05EF051C05DF050C05CF05BC063F089
:100FE0005AC062F059C061F058C060F063DD015032
:100FF00000520FE15650010A0CE054500BE00F0B69
:10100000565C01E00DE254BE0BD054BC03D0200E60
:1010100002D0546A300E002600509EA8FED7AD6E56
:10102000D8925BC05FF05AC05EF059C05DF058C006
:101030005CF0636B626B616B0A0E606F3BDD03C03B
:101040005BF002C05AF001C059F000C058F0562EB3
:10105000B9D7120050BE10D00F0E006E4F380016D8
:101060000A0E005C03E2300E002602D0505000262B
:1010700000509EA8FED7AD6E0F0E4F160A0E4F5CA5
:1010800002E2300E02D0509E50504F264F509EA884
:10109000FED7AD6E12000F0E5C6E660E5B6E0F011A
:1010A00040B706D0F10E6F1408096F6E5D6A15D057
:1010B00030B707D0F10E6F1406096F6E010E5D6E2A
:1010C0000CD020B707D0F10E6F1404096F6E020E1A
:1010D0005D6E03D0000E016E3CD05750030B006EC6
:1010E000FC0E60140010606E0F0E5F6E640E5E6E7C
:1010F00053C063F052C062F051C061F050C060F064
:1011000058C064F000012DEC01F056C065FF659CED
:1011100059B0658C5A6A56505A5C14E254C0E9FFC3
:1011200055C0EAFFEFCF60F05CC0EAFF5BC0E9FFAB
:1011300060C0EFFF5B2AD8B45C2A542AD8B4552A81
:101140005A2AE9D76086F10E6F146F6E010E016E98
:101150000F01000136EF0DF0F86AD09E078EB886B9
:10116000810EAF6E000EB06EA60EAC6E900EAB6E22
:10117000C150C00B0F09C16E166A176A376A366A0A
:10118000356A1B0E346E38903882080E396E030EA5
:101190003A6E3B6A3B6A3B5007080BE3036A3B50DD
:1011A0002C0FE96E000E0320EA6E220EEF6E3B2A32
:1011B000F2D7000E0609CA6E180ECB6E9D80000E87
:1011C000946E94948B9494948B940C0EBD6EC00E7C
:1011D000F212C050C00B0709C06EC09EC280C15041
:1011E000C00B0D09C16E3CC02CF03DC02DF03EC0BF
:1011F0002EF03FC02FF040C030F041C031F042C06F
:1012000032F043C033F0A20EF66E000EF76EF3EC30
:1012100000F0780E0509CA6E4F0ECB6EC5EF01F0D7
:10122000C80E4F6E33EC02F08CEF02F00A0E4F6ED8
:1012300033EC02F09D82C00EF212C60EF66E000E66
:10124000F76EF3EC00F039EC03F002C073F001C06C
:1012500072F04DEC03F003C049F002C048F001C049
:1012600047F000C046F068EC03F002C073F001C024
:1012700072F04DEC03F003C04DF002C04CF001C021
:101280004BF000C04AF04F6A4E6A4D6A4C6A4B6A96
:101290004A6A39EC03F002C04FF001C04EF068EC2E
:1012A00003F002C051F001C050F04FC05FF04EC0DB
:1012B0005EF051C061F050C060F05FC073F05EC07E
:1012C00072F04DEC03F003C069F002C068F001C099
:1012D00067F000C066F003C07DF002C07CF001C082
:1012E0007BF000C07AF00A0E816FD70E806F230E5C
:1012F0007F6F780E7E6F7CEC03F003C069F002C054
:1013000068F001C067F000C066F0D88203C079F0D1
:1013100002C078F001C077F000C076F07D6B7C6B86
:10132000200E7B6F840E7A6FF5EC03F003C049F05A
:1013300002C048F001C047F000C046F061C073F041
:1013400060C072F04DEC03F003C065F002C064F0C1
:1013500001C063F000C062F065C07DF064C07CF045
:1013600063C07BF062C07AF0540E816FE30E806F31
:10137000250E7F6F7A0E7E6F7CEC03F003C069F060
:1013800002C068F001C067F000C066F065C07DF083
:1013900064C07CF063C07BF062C07AF065C081F00D
:1013A00064C080F063C07FF062C07EF07CEC03F02C
:1013B00003C06DF002C06CF001C06BF000C06AF0B9
:1013C00003C07DF002C07CF001C07BF000C07AF069
:1013D000A20E816FE70E806F3B0E7F6F6C0E7E6FEB
:1013E0007CEC03F0D88269C079F068C078F067C0FF
:1013F00077F066C076F003C07DF002C07CF001C0DB
:101400007BF000C07AF0F5EC03F003C069F002C095
:1014100068F001C067F000C066F0D88203C079F0C0
:1014200002C078F001C077F000C076F07D6B7C6B75
:101430007B6B810E7A6FF5EC03F003C055F002C0B0
:1014400054F001C053F000C052F0D88249C079F086
:1014500048C078F047C077F046C076F07D6B7C6B73
:10146000480E7B6F830E7A6FF5EC03F003C069F0D2
:1014700002C068F001C067F000C066F0AC0E7D6F7E
:10148000C50E7C6F270E7B6F710E7A6F65C081F081
:1014900064C080F063C07FF062C07EF07CEC03F03B
:1014A000D8920A0E796FD70E786F230E776F780E69
:1014B000766F03C07DF002C07CF001C07BF000C0FD
:1014C0007AF0F5EC03F069C07DF068C07CF067C08D
:1014D0007BF066C07AF003C081F002C080F001C0EA
:1014E0007FF000C07EF07CEC03F003C069F002C026
:1014F00068F001C067F000C066F0D89203C079F0D0
:1015000002C078F001C077F000C076F055C07DF0E1
:1015100054C07CF053C07BF052C07AF0F5EC03F07D
:1015200003C04DF002C04CF001C04BF000C04AF0C7
:101530000A0E4F6E33EC02F0D40EF66E000EF76E0C
:10154000160E526E2AEC05F0890EE96E49C051F074
:1015500048C050F047C04FF046C04EF0020E526EE9
:10156000A1EC05F0330E9EA8FED7AD6EEE0EF66E22
:10157000000EF76E130E526E2AEC05F0890EE96E1E
:101580004DC051F04CC050F04BC04FF04AC04EF02F
:10159000020E526EA1EC05F0330E9EA8FED7AD6E82
:1015A00049C03FF048C03EF047C03DF046C03CF067
:1015B0003CC02CF03DC02DF03EC02EF03FC02FF0BF
:1015C0004DC043F04CC042F04BC041F04AC040F027
:1015D00040C030F041C031F042C032F043C033F07F
:1015E0000A0E4F6E33EC02F0000E016EC250C30BB8
:1015F0000110C26E140E4F6E33EC02F0C282C2B202
:10160000FED7C4CF54F0030E556E61EC06F001C056
:1016100044F04450450802E3460E446E44505508D9
:1016200002E2550E446E060EF66E010EF76E060EC1
:10163000526E2AEC05F044C052F01B0E536E75EC4E
:1016400006F0040E016EC250C30B0110C26E140EE0
:101650004F6E33EC02F0C282C2B2FED7C4CF54F058
:10166000030E556E61EC06F001C045F0050E4526EF
:1016700045504A0802E34B0E456E4550550802E2BC
:10168000550E456E100EF66E010EF76E070E526E79
:101690002AEC05F045C052F01B0E536E75EC06F0B7
:1016A00045C0BEFF736B44C072F04DEC03F04DC0FB
:1016B00051F04CC050F04BC04FF04AC04EF003C048
:1016C00055F002C054F001C053F000C052F0ABEC32
:1016D00006F001E3BE68736B45C072F04DEC03F099
:1016E00003C051F002C050F001C04FF000C04EF0F6
:1016F0004DC055F04CC054F04BC053F04AC052F0AE
:10170000ABEC06F001E3BE6A736B44C072F04DECC3
:1017100003F003C051F002C050F001C04FF000C010
:101720004EF04DC055F04CC054F04BC053F04AC081
:1017300052F0ABEC06F01AE3736B45C072F04DEC5F
:1017400003F04DC051F04CC050F04BC04FF04AC0B8
:101750004EF003C055F002C054F001C053F000C079
:1017600052F0ABEC06F002E3120EBE6E60BE04D087
:101770000F0150AF4BD100014F6A230E4E6E60AE89
:1017800017D0F10E6F146F6E1E98A4901E9074BE49
:101790001E80749E60A40BD0000E60B0010E070B7B
:1017A000006ED8900036F10E1E1400101E6E1CD074
:1017B0000F0150AF15D0F10E6F140A096F6E1E881D
:1017C000A4921E9074BC1E80749C5051070B070B92
:1017D000006ED8900036F10E1E1400101E6E03D05D
:1017E000000E016E4BD0000165500F0B2B6E1E9A40
:1017F00065BC1E8A1E9C62B61E8C000E1EBC010EAD
:10180000536E0F0E5B6E640E5A6E53C05CF0E6EFC3
:1018100006F003C022F002C021F001C020F000C099
:101820001FF00F0E526E660E516E506A2B50505CB8
:1018300014E251C0E9FF52C0EAFFEFCF55F04FC0AC
:10184000EAFF4EC0E9FF55C0EFFF4E2AD8B44F2A39
:10185000512AD8B4522A502AE9D7F10E6F146F6E6C
:101860001E9EA4BE1E8EA49E1EA804D00F01509FD3
:1018700003D00001609E0F01010E016E0152D8B429
:10188000BDD0000E1EB8010E4E6E000E1EB0010E31
:101890004F6E1A0EF66E010EF76E0C0E526E0001B0
:1018A0002AEC05F04EC052F01B0E536E75EC06F09C
:1018B000280EF66E010EF76E040E526E2AEC05F03D
:1018C000410EE96E22C053F021C052F020C051F009
:1018D0001FC050F0D7EC07F02F0EF66E010EF76E1A
:1018E000050E526E2AEC05F02BC052F01B0E536E03
:1018F00075EC06F0360EF66E010EF76E050E526EA2
:101900002AEC05F04FC052F01B0E536E75EC06F03A
:10191000200E9EA8FED7AD6E1EC000F01E30070B35
:101920004E6E000E1EBA010E4F6E000E1EBC010E52
:10193000506E000E1EBE010E516E400EF66E010E70
:10194000F76E050E526E2AEC05F04EC052F01B0EDB
:10195000536E75EC06F0470EF66E010EF76E050E2F
:10196000526E2AEC05F04FC052F01B0E536E75EC10
:1019700006F04E0EF66E010EF76E050E526E2AEC54
:1019800005F050C052F01B0E536E75EC06F0550E6C
:10199000F66E010EF76E050E526E2AEC05F051C080
:1019A00052F01B0E536E75EC06F05E0EF66E010ED5
:1019B000F76EF3EC00F03B6A2B503B5C15E2036AD8
:1019C0003B50230FE96E000E0320EA6EEFCF4EF07E
:1019D0004EC04FF0370E506E2AEC08F0200E9EA835
:1019E000FED7AD6E3B2AE8D70D0E9EA8FED7AD6E92
:1019F0000A0E9EA8FED7AD6E08D00F016C0EF66ED3
:101A0000010EF76E0001F3EC00F00F0140A704D0C7
:101A100030A702D020B702D11D500608D8B0FED0A2
:101A2000FF0A04E11C50D008D8B0F8D01D6A1C6A27
:101A3000000E38B2010E4E6E000E38B0010E4F6E21
:101A400037C053F036C052F035C051F034C050F0BA
:101A5000556A2C0E546E39C056F03AC057F04EC03D
:101A600058F04FC059F000014BEF08F001C03BF0B7
:101A70003B3C01D0CCD07E0EF66E010EF76E060E0A
:101A8000526E2AEC05F03BC052F01B0E536E75EC03
:101A900006F0860EF66E010EF76E050E526E2AECFB
:101AA00005F0410EE96E37C053F036C052F035C034
:101AB00051F034C050F0D7EC07F08E0EF66E010EE8
:101AC000F76E050E526E2AEC05F039C052F01B0E6F
:101AD000536E75EC06F0200E9EA8FED7AD6E000E7C
:101AE00038B2010E4E6E000E38B0010E4F6E980ED9
:101AF000F66E010EF76E040E526E2AEC05F03AC037
:101B000052F01B0E536E75EC06F09E0EF66E010E33
:101B1000F76E050E526E2AEC05F04EC052F01B0E09
:101B2000536E75EC06F0A50EF66E010EF76E050EFF
:101B3000526E2AEC05F04FC052F01B0E536E75EC3E
:101B400006F0AC0EF66E010EF76E0C0E526E2AEC1D
:101B500005F03B6A39503B5C1DE2036A3B502C0F99
:101B6000E96E000E0320EA6EEFCF4EF00D0E9EA838
:101B7000FED7AD6E0A0E9EA8FED7AD6E4EC04FF0DA
:101B8000370E506E2AEC08F0200E9EA8FED7AD6EE0
:101B90003B2AE0D70D0E9EA8FED7AD6E0A0E9EA87A
:101BA000FED7AD6EBA0EF66E010EF76E060E526ED1
:101BB0002AEC05F03BC052F01B0E536E75EC06F09C
:101BC000C20EF66E010EF76E050E526E2AEC05F08F
:101BD000410EE96E37C053F036C052F035C051F0B7
:101BE00034C050F0D7EC07F0CA0EF66E010EF76E57
:101BF000050E526E2AEC05F039C052F01B0E536EE2
:101C000075EC06F0200E9EA8FED7AD6E06D0D40E61
:101C1000F66E010EF76EF3EC00F00F01020E4E6E41
:101C2000FA0E4F6E000133EC02F04E2E01D002D0BE
:0A1C30000F01F6D723EF09F00300BF
:020000040030CA
:0E00000000C21E1E008691000FC00FE00F40D0
:00000001FF
;PIC18F2480
;CRC=8F34  CREATED="12-Mar-18 14:00"
